:100000000C942A000C9447000C9447000C94470071
:100010000C9447000C9447000C94C0010C944700CA
:100020000C9447000C9447000C9447000C94470034
:100030000C9447000C9447000C9447000C94470024
:100040000C9447000C9447000C9447000C94470014
:100050000C94470011241FBECFE5D8E0DEBFCDBF12
:1000600010E0A0E6B0E0ECE4F9E002C005900D92EB
:10007000A237B107D9F720E0A2E7B0E001C01D9296
:10008000A937B207E1F70E9449000C94A4040C942C
:1000900000000E9483000E94E9000E9483000E94E9
:1000A0009D010E944802789480E690E00E946D01D4
:1000B0000E9438020E94EE010E94A603C62F2FEF75
:1000C00081EE94E0215080409040E1F700C00000B4
:1000D00080EC0E94A2006C2F70E080E090E00E9413
:1000E00080012FEF87EA91E6215080409040E1F7B0
:1000F00000C000000E9422018CE690E00E946D0189
:100100000E942201D1CF41E064E083E00E945202CC
:1001100041E065E083E00E94520241E063E082E05A
:100120000E94520241E064E082E00E94520241E0FB
:1001300065E082E00E94520241E066E082E00E94B7
:1001400052020895CF93C82F40E061E081E00E9401
:10015000C30240E062E081E00E94C30240E063E04D
:1001600081E00E94C3028BB39C2F907F8F70892BFC
:100170008BBB41E063E081E00E94C3028FE99FE016
:100180000197F1F700C0000040E063E081E00E94C9
:10019000C30220E1C29FC00111249BB39F70892B31
:1001A0008BBB41E063E081E00E94C3028FE99FE0E6
:1001B0000197F1F700C0000040E063E081E00E9499
:1001C000C3028FE19EE40197F1F700C00000CF91D8
:1001D000089541E061E081E00E94520241E062E066
:1001E00081E00E94520241E063E081E00E945202FD
:1001F00041E064E080E00E94520241E065E080E07E
:100200000E94520241E066E080E00E94520241E01A
:1002100067E080E00E94520283E30E94A20082E332
:100220000E94A20088E20E94A20082E00E94A20036
:1002300081E00E94A2008CE00E94A20086E00E9461
:10024000A200089581E00E94A2000895CF93C82FD4
:1002500041E061E081E00E94C30240E062E081E0B1
:100260000E94C30240E063E081E00E94C3028BB3BE
:100270009C2F907F8F70892B8BBB41E063E081E0E6
:100280000E94C3028FE99FE00197F1F700C00000D0
:1002900040E063E081E00E94C30220E1C29FC00110
:1002A00011249BB39F70892B8BBB41E063E081E0FD
:1002B0000E94C3028FE99FE00197F1F700C00000A0
:1002C00040E063E081E00E94C3028FE19EE4019779
:1002D000F1F700C00000CF910895CF93DF93EC01B8
:1002E00009C00E9426018FE39CE90197F1F700C045
:1002F0000000219688818111F4CFDF91CF9108957C
:10030000CF93DF93CDB7DEB72A970FB6F894DEBF51
:100310000FBECDBF2AE0AE014F5F5F4F0E94630466
:10032000CE0101960E946D012A960FB6F894DEBFA9
:100330000FBECDBFDF91CF91089581B3806281BBA5
:100340008EB580618EBD8EB588608EBD8FB58260A2
:100350008FBD8FB58E7F8FBD8FB580688FBD8FB5F8
:100360008F7B8FBD8EB584608EBD8EB58D7F8EBD2B
:100370008EB58E7F8EBD82EE94E097BD86BD0895CA
:100380001F920F920FB60F9211242F933F938F93CA
:100390009F9386B5209173003091740090E0821B8A
:1003A000930B909374008093730080E288BF8091D8
:1003B000730090917400892B41F48EB58F7B8EBDB4
:1003C000809172008F5F809372009F918F913F9117
:1003D0002F910F900FBE0F901F9018958091730072
:1003E00090917400019751F489B78F7D89BF1EBC2D
:1003F00010927200109274001092730080E289BF14
:1004000085E48EBD1FBC8FE39CE90197F1F700C026
:10041000000060917300709174007695762F6627C6
:100420007795679580E090E00E94D5032DEC3CEC39
:1004300048E652E40E94340360937500709376009E
:1004400080937700909378006091750070917600AA
:100450008091770090917800089588EF82BF82E0C4
:1004600083BF08B600FEFDCF13BE81E088BF0895AC
:1004700082B38E7F82BB8AE08A95F1F700C082B397
:10048000816082BB0E942D0282B38E7F82BB089561
:1004900081B3816081BB81B3877F81BB8AB3816077
:1004A0008ABB0895442319F04130C9F10895813081
:1004B00091F028F08230D9F0833029F108952AB3E1
:1004C00081E090E002C0880F991F6A95E2F780955D
:1004D00082238ABB089527B381E090E002C0880F91
:1004E000991F6A95E2F78095822387BB089524B30C
:1004F00081E090E002C0880F991F6A95E2F780952D
:10050000822384BB089521B381E090E002C0880F6C
:10051000991F6A95E2F78095822381BB0895813007
:1005200089F028F08230C9F0833011F108952AB3A0
:1005300081E090E002C0880F991F6A95E2F7822B54
:100540008ABB089527B381E090E002C0880F991F0D
:100550006A95E2F7822B87BB089524B381E090E08F
:1005600002C0880F991F6A95E2F7822B84BB089519
:1005700021B381E090E002C0880F991F6A95E2F7ED
:10058000822B81BB0895442319F04130C9F10895AD
:10059000813091F028F08230D9F0833029F108952C
:1005A0002BB381E090E002C0880F991F6A95E2F7B3
:1005B000809582238BBB089528B381E090E002C030
:1005C000880F991F6A95E2F78095822388BB08956A
:1005D00025B381E090E002C0880F991F6A95E2F789
:1005E0008095822385BB089522B381E090E002C00C
:1005F000880F991F6A95E2F78095822382BB089540
:10060000813089F028F08230C9F0833011F10895EB
:100610002BB381E090E002C0880F991F6A95E2F742
:10062000822B8BBB089528B381E090E002C0880F35
:10063000991F6A95E2F7822B88BB089525B381E064
:1006400090E002C0880F991F6A95E2F7822B85BB64
:10065000089522B381E090E002C0880F991F6A9547
:10066000E2F7822B82BB08950E9448030C94290470
:100670000E94220458F00E941B0440F029F45F3FBE
:1006800029F00C94120451110C945D040C9418047C
:100690000E943A0468F39923B1F3552391F3951B13
:1006A000550BBB27AA2762177307840738F09F5F93
:1006B0005F4F220F331F441FAA1FA9F335D00E2E00
:1006C0003AF0E0E832D091505040E695001CCAF76D
:1006D0002BD0FE2F29D0660F771F881FBB1F261730
:1006E00037074807AB07B0E809F0BB0B802DBF0107
:1006F000FF2793585F4F3AF09E3F510578F00C94D6
:1007000012040C945D045F3FE4F3983ED4F38695A5
:1007100077956795B795F7959F5FC9F7880F911DF6
:100720009695879597F90895E1E0660F771F881FE2
:10073000BB1F621773078407BA0720F0621B730B95
:10074000840BBA0BEE1F88F7E09508950E944204CF
:1007500088F09F5798F0B92F9927B751B0F0E1F082
:10076000660F771F881F991F1AF0BA95C9F714C032
:10077000B13091F00E945C04B1E008950C945C04E7
:10078000672F782F8827B85F39F0B93FCCF386956B
:1007900077956795B395D9F73EF4909580957095C8
:1007A00061957F4F8F4F9F4F0895E89409C097FB45
:1007B0003EF490958095709561957F4F8F4F9F4F38
:1007C0009923A9F0F92F96E9BB279395F69587957C
:1007D00077956795B795F111F8CFFAF4BB0F11F43F
:1007E00060FF1BC06F5F7F4F8F4F9F4F16C08823E6
:1007F00011F096E911C0772321F09EE8872F762F1C
:1008000005C0662371F096E8862F70E060E02AF05C
:100810009A95660F771F881FDAF7880F9695879548
:1008200097F9089597F99F6780E870E060E0089570
:100830009FEF80EC089500240A94161617061806F8
:100840000906089500240A941216130614060506D4
:100850000895092E0394000C11F4882352F0BB0F65
:1008600040F4BF2B11F460FF04C06F5F7F4F8F4FC8
:100870009F4F089557FD9058440F551F59F05F3F03
:1008800071F04795880F97FB991F61F09F3F79F0B2
:1008900087950895121613061406551FF2CF469534
:1008A000F1DF08C0161617061806991FF1CF8695B6
:1008B0007105610508940895E894BB27662777279A
:1008C000CB0197F90895BB272A3051F4992342F4BC
:1008D000BDE290958095709561957F4F8F4F9F4FAA
:1008E0000C947304BB27FA01A62F621771058105CA
:1008F0009105330B30FB66F0AA27660F771F881F20
:10090000991FAA1FA21710F0A21B63953850A9F7D0
:10091000A05DAA3308F0A95DA19336F7B111B19398
:100920001082CA010C949404DC01FC01672F7191C0
:100930007723E1F7329704C07C916D9370836291C5
:0C094000AE17BF07C8F30895F894FFCF6E
:10094C0044697374616E636520697300446F6E65EE
:02095C00000099
:00000001FF
